{
  "contractName": "PRM",
  "abi": [
    {
      "constant": true,
      "inputs": [],
      "name": "incrementalID",
      "outputs": [
        {
          "name": "",
          "type": "uint256"
        }
      ],
      "payable": false,
      "stateMutability": "view",
      "type": "function"
    },
    {
      "constant": true,
      "inputs": [],
      "name": "PRMTokenAddress",
      "outputs": [
        {
          "name": "",
          "type": "address"
        }
      ],
      "payable": false,
      "stateMutability": "view",
      "type": "function"
    },
    {
      "constant": true,
      "inputs": [],
      "name": "admin",
      "outputs": [
        {
          "name": "",
          "type": "address"
        }
      ],
      "payable": false,
      "stateMutability": "view",
      "type": "function"
    },
    {
      "inputs": [],
      "payable": false,
      "stateMutability": "nonpayable",
      "type": "constructor"
    },
    {
      "payable": true,
      "stateMutability": "payable",
      "type": "fallback"
    },
    {
      "anonymous": false,
      "inputs": [
        {
          "indexed": true,
          "name": "_newOwner",
          "type": "address"
        },
        {
          "indexed": true,
          "name": "_previousOwner",
          "type": "address"
        },
        {
          "indexed": true,
          "name": "_photoID",
          "type": "uint256"
        }
      ],
      "name": "PhotoOwnershipTransfer",
      "type": "event"
    },
    {
      "anonymous": false,
      "inputs": [
        {
          "indexed": true,
          "name": "_viewer",
          "type": "address"
        },
        {
          "indexed": true,
          "name": "_photoID",
          "type": "uint256"
        }
      ],
      "name": "PhotoRelease",
      "type": "event"
    },
    {
      "anonymous": false,
      "inputs": [
        {
          "indexed": true,
          "name": "_photoID",
          "type": "uint256"
        },
        {
          "indexed": false,
          "name": "_bidPrice",
          "type": "uint256"
        }
      ],
      "name": "PhotoBid",
      "type": "event"
    },
    {
      "anonymous": false,
      "inputs": [
        {
          "indexed": true,
          "name": "_uploader",
          "type": "address"
        },
        {
          "indexed": false,
          "name": "_photoID",
          "type": "uint256"
        }
      ],
      "name": "PhotoUpload",
      "type": "event"
    },
    {
      "constant": false,
      "inputs": [
        {
          "name": "_PRMTokenAddress",
          "type": "address"
        }
      ],
      "name": "setPRMTokenAddress",
      "outputs": [],
      "payable": false,
      "stateMutability": "nonpayable",
      "type": "function"
    },
    {
      "constant": false,
      "inputs": [
        {
          "name": "_tokenAddress",
          "type": "address"
        }
      ],
      "name": "retrieveAccidentalTransfers",
      "outputs": [],
      "payable": false,
      "stateMutability": "nonpayable",
      "type": "function"
    },
    {
      "constant": true,
      "inputs": [
        {
          "name": "_photoID",
          "type": "uint256"
        }
      ],
      "name": "getPhotoInfo",
      "outputs": [
        {
          "name": "",
          "type": "uint256"
        },
        {
          "name": "",
          "type": "uint256"
        },
        {
          "name": "",
          "type": "uint256"
        },
        {
          "name": "",
          "type": "bool"
        },
        {
          "name": "",
          "type": "address"
        },
        {
          "name": "",
          "type": "address"
        }
      ],
      "payable": false,
      "stateMutability": "view",
      "type": "function"
    },
    {
      "constant": false,
      "inputs": [
        {
          "name": "_saleType",
          "type": "uint256"
        },
        {
          "name": "_salePrice",
          "type": "uint256"
        },
        {
          "name": "_isToken",
          "type": "bool"
        }
      ],
      "name": "photoUpload",
      "outputs": [],
      "payable": false,
      "stateMutability": "nonpayable",
      "type": "function"
    },
    {
      "constant": false,
      "inputs": [
        {
          "name": "_salePrice",
          "type": "uint256"
        },
        {
          "name": "_photoID",
          "type": "uint256"
        },
        {
          "name": "_isToken",
          "type": "bool"
        }
      ],
      "name": "photoSale",
      "outputs": [],
      "payable": false,
      "stateMutability": "nonpayable",
      "type": "function"
    },
    {
      "constant": false,
      "inputs": [
        {
          "name": "_resalePrice",
          "type": "uint256"
        },
        {
          "name": "_photoID",
          "type": "uint256"
        },
        {
          "name": "_isToken",
          "type": "bool"
        }
      ],
      "name": "photoResale",
      "outputs": [],
      "payable": false,
      "stateMutability": "nonpayable",
      "type": "function"
    },
    {
      "constant": false,
      "inputs": [
        {
          "name": "_startingBid",
          "type": "uint256"
        },
        {
          "name": "_auctionDuration",
          "type": "uint256"
        },
        {
          "name": "_photoID",
          "type": "uint256"
        },
        {
          "name": "_isToken",
          "type": "bool"
        }
      ],
      "name": "photoAuction",
      "outputs": [],
      "payable": false,
      "stateMutability": "nonpayable",
      "type": "function"
    },
    {
      "constant": false,
      "inputs": [
        {
          "name": "_photoID",
          "type": "uint256"
        },
        {
          "name": "_tokenAmount",
          "type": "uint256"
        }
      ],
      "name": "bidOnAuction",
      "outputs": [],
      "payable": true,
      "stateMutability": "payable",
      "type": "function"
    },
    {
      "constant": false,
      "inputs": [
        {
          "name": "_photoID",
          "type": "uint256"
        },
        {
          "name": "_tokenAmount",
          "type": "uint256"
        }
      ],
      "name": "purchaseUsageRight",
      "outputs": [],
      "payable": true,
      "stateMutability": "payable",
      "type": "function"
    },
    {
      "constant": false,
      "inputs": [
        {
          "name": "_photoID",
          "type": "uint256"
        },
        {
          "name": "_tokenAmount",
          "type": "uint256"
        }
      ],
      "name": "purchaseOwnershipRight",
      "outputs": [],
      "payable": true,
      "stateMutability": "payable",
      "type": "function"
    },
    {
      "constant": false,
      "inputs": [
        {
          "name": "_photoID",
          "type": "uint256"
        }
      ],
      "name": "finalizeAuction",
      "outputs": [],
      "payable": false,
      "stateMutability": "nonpayable",
      "type": "function"
    }
  ],
  "bytecode": "0x6080604052600060025534801561001557600080fd5b5033600160006101000a81548173ffffffffffffffffffffffffffffffffffffffff021916908373ffffffffffffffffffffffffffffffffffffffff160217905550611bea806100666000396000f3006080604052600436106100d0576000357c0100000000000000000000000000000000000000000000000000000000900463ffffffff16806312dc593a146100d5578063290a60fb1461011857806335239f4d1461014257806358a5b4631461016d5780635aa36382146101ba5780635ffe86ab146101fd57806361399d701461022757806380d9b9ea1461026a5780638f5a37c5146102ad5780639f6351201461036d578063be26bc2d14610397578063e8083863146103da578063e8c8a74214610407578063f851a4401461045e575b600080fd5b3480156100e157600080fd5b50610116600480360381019080803573ffffffffffffffffffffffffffffffffffffffff1690602001909291905050506104b5565b005b6101406004803603810190808035906020019092919080359060200190929190505050610554565b005b34801561014e57600080fd5b5061015761091f565b6040518082815260200191505060405180910390f35b34801561017957600080fd5b506101b8600480360381019080803590602001909291908035906020019092919080359060200190929190803515159060200190929190505050610925565b005b3480156101c657600080fd5b506101fb6004803603810190808035906020019092919080359060200190929190803515159060200190929190505050610970565b005b6102256004803603810190808035906020019092919080359060200190929190505050610a7e565b005b34801561023357600080fd5b50610268600480360381019080803573ffffffffffffffffffffffffffffffffffffffff169060200190929190505050610d28565b005b34801561027657600080fd5b506102ab6004803603810190808035906020019092919080359060200190929190803515159060200190929190505050610fc4565b005b3480156102b957600080fd5b506102d86004803603810190808035906020019092919050505061101c565b60405180878152602001868152602001858152602001841515151581526020018373ffffffffffffffffffffffffffffffffffffffff1673ffffffffffffffffffffffffffffffffffffffff1681526020018273ffffffffffffffffffffffffffffffffffffffff1673ffffffffffffffffffffffffffffffffffffffff168152602001965050505050505060405180910390f35b6103956004803603810190808035906020019092919080359060200190929190505050611167565b005b3480156103a357600080fd5b506103d860048036038101908080359060200190929190803590602001909291908035151590602001909291905050506114bb565b005b3480156103e657600080fd5b5061040560048036038101908080359060200190929190505050611502565b005b34801561041357600080fd5b5061041c611b0e565b604051808273ffffffffffffffffffffffffffffffffffffffff1673ffffffffffffffffffffffffffffffffffffffff16815260200191505060405180910390f35b34801561046a57600080fd5b50610473611b33565b604051808273ffffffffffffffffffffffffffffffffffffffff1673ffffffffffffffffffffffffffffffffffffffff16815260200191505060405180910390f35b600160009054906101000a900473ffffffffffffffffffffffffffffffffffffffff1673ffffffffffffffffffffffffffffffffffffffff163373ffffffffffffffffffffffffffffffffffffffff1614151561051157600080fd5b806000806101000a81548173ffffffffffffffffffffffffffffffffffffffff021916908373ffffffffffffffffffffffffffffffffffffffff16021790555050565b6000806003600085815260200190815260200160002091508160030160009054906101000a900460ff1615801561058f575060008260020154145b151561059757fe5b8160010154831480156105ae575060008260010154115b156107bb576000809054906101000a900473ffffffffffffffffffffffffffffffffffffffff1690508073ffffffffffffffffffffffffffffffffffffffff1663e391607c33858560030160019054906101000a900473ffffffffffffffffffffffffffffffffffffffff166040518463ffffffff167c0100000000000000000000000000000000000000000000000000000000028152600401808473ffffffffffffffffffffffffffffffffffffffff1673ffffffffffffffffffffffffffffffffffffffff1681526020018381526020018273ffffffffffffffffffffffffffffffffffffffff1673ffffffffffffffffffffffffffffffffffffffff1681526020019350505050600060405180830381600087803b1580156106d257600080fd5b505af11580156106e6573d6000803e3d6000fd5b5050505060008260010181905550838260030160019054906101000a900473ffffffffffffffffffffffffffffffffffffffff1673ffffffffffffffffffffffffffffffffffffffff163373ffffffffffffffffffffffffffffffffffffffff167f2e54bcd3cd97e7f372a13101ac533911426c3681920cb8b8b313de67c7a4998160405160405180910390a4338260030160016101000a81548173ffffffffffffffffffffffffffffffffffffffff021916908373ffffffffffffffffffffffffffffffffffffffff160217905550610919565b8160000154341480156107d2575060008260000154115b15610913578160030160019054906101000a900473ffffffffffffffffffffffffffffffffffffffff1673ffffffffffffffffffffffffffffffffffffffff166108fc349081150290604051600060405180830381858888f19350505050158015610841573d6000803e3d6000fd5b5060008260000181905550838260030160019054906101000a900473ffffffffffffffffffffffffffffffffffffffff1673ffffffffffffffffffffffffffffffffffffffff163373ffffffffffffffffffffffffffffffffffffffff167f2e54bcd3cd97e7f372a13101ac533911426c3681920cb8b8b313de67c7a4998160405160405180910390a4338260030160016101000a81548173ffffffffffffffffffffffffffffffffffffffff021916908373ffffffffffffffffffffffffffffffffffffffff160217905550610918565b600080fd5b5b50505050565b60025481565b600060036000848152602001908152602001600020905081156109505784816001018190555061095a565b8481600001819055505b83610e1002420181600201819055505050505050565b3360036000600254815260200190815260200160002060030160016101000a81548173ffffffffffffffffffffffffffffffffffffffff021916908373ffffffffffffffffffffffffffffffffffffffff16021790555060018314156109e2576109dd82600254836114bb565b610a17565b60028314156109fd576109f88260025483610fc4565b610a16565b6002831115610a1557610a14828460025484610925565b5b5b5b3373ffffffffffffffffffffffffffffffffffffffff167f685214f56102a692dfc55d0530ccedd7d1bb1656de59a5c4fce1529dcf0b535c6002546040518082815260200191505060405180910390a2600260008154809291906001019190505550505050565b6000806003600085815260200190815260200160002091508160030160009054906101000a900460ff161515610ab057fe5b816001015483148015610ac7575060008260010154115b15610c4c576000809054906101000a900473ffffffffffffffffffffffffffffffffffffffff1690508073ffffffffffffffffffffffffffffffffffffffff1663e391607c33858560030160019054906101000a900473ffffffffffffffffffffffffffffffffffffffff166040518463ffffffff167c0100000000000000000000000000000000000000000000000000000000028152600401808473ffffffffffffffffffffffffffffffffffffffff1673ffffffffffffffffffffffffffffffffffffffff1681526020018381526020018273ffffffffffffffffffffffffffffffffffffffff1673ffffffffffffffffffffffffffffffffffffffff1681526020019350505050600060405180830381600087803b158015610beb57600080fd5b505af1158015610bff573d6000803e3d6000fd5b50505050833373ffffffffffffffffffffffffffffffffffffffff167f6df0d64c69c0527f52c4dcffc80d1ec93937159524a4d77276a95c846a1e841f60405160405180910390a3610d22565b816000015434148015610c63575060008260000154115b15610d1c578160030160019054906101000a900473ffffffffffffffffffffffffffffffffffffffff1673ffffffffffffffffffffffffffffffffffffffff166108fc349081150290604051600060405180830381858888f19350505050158015610cd2573d6000803e3d6000fd5b50833373ffffffffffffffffffffffffffffffffffffffff167f6df0d64c69c0527f52c4dcffc80d1ec93937159524a4d77276a95c846a1e841f60405160405180910390a3610d21565b600080fd5b5b50505050565b600080600160009054906101000a900473ffffffffffffffffffffffffffffffffffffffff1673ffffffffffffffffffffffffffffffffffffffff163373ffffffffffffffffffffffffffffffffffffffff16141515610d8757600080fd5b6000809054906101000a900473ffffffffffffffffffffffffffffffffffffffff1673ffffffffffffffffffffffffffffffffffffffff168373ffffffffffffffffffffffffffffffffffffffff1614151515610de357600080fd5b8291508173ffffffffffffffffffffffffffffffffffffffff166370a08231306040518263ffffffff167c0100000000000000000000000000000000000000000000000000000000028152600401808273ffffffffffffffffffffffffffffffffffffffff1673ffffffffffffffffffffffffffffffffffffffff168152602001915050602060405180830381600087803b158015610e8157600080fd5b505af1158015610e95573d6000803e3d6000fd5b505050506040513d6020811015610eab57600080fd5b810190808051906020019092919050505090508173ffffffffffffffffffffffffffffffffffffffff1663a9059cbb600160009054906101000a900473ffffffffffffffffffffffffffffffffffffffff16836040518363ffffffff167c0100000000000000000000000000000000000000000000000000000000028152600401808373ffffffffffffffffffffffffffffffffffffffff1673ffffffffffffffffffffffffffffffffffffffff16815260200182815260200192505050602060405180830381600087803b158015610f8357600080fd5b505af1158015610f97573d6000803e3d6000fd5b505050506040513d6020811015610fad57600080fd5b810190808051906020019092919050505050505050565b60006003600084815260200190815260200160002090508115610fef57838160010181905550610ff9565b8381600001819055505b60018160030160006101000a81548160ff02191690831515021790555050505050565b60008060008060008061102d611b59565b6003600089815260200190815260200160002060c060405190810160405290816000820154815260200160018201548152602001600282015481526020016003820160009054906101000a900460ff161515151581526020016003820160019054906101000a900473ffffffffffffffffffffffffffffffffffffffff1673ffffffffffffffffffffffffffffffffffffffff1673ffffffffffffffffffffffffffffffffffffffff1681526020016004820160009054906101000a900473ffffffffffffffffffffffffffffffffffffffff1673ffffffffffffffffffffffffffffffffffffffff1673ffffffffffffffffffffffffffffffffffffffff16815250509050806000015181602001518260400151836060015184608001518560a001519650965096509650965096505091939550919395565b60008060036000858152602001908152602001600020915042826002015411151561118e57fe5b8160010154831115611366576000809054906101000a900473ffffffffffffffffffffffffffffffffffffffff1690508073ffffffffffffffffffffffffffffffffffffffff1663557323bd8360040160009054906101000a900473ffffffffffffffffffffffffffffffffffffffff16846001015433876040518563ffffffff167c0100000000000000000000000000000000000000000000000000000000028152600401808573ffffffffffffffffffffffffffffffffffffffff1673ffffffffffffffffffffffffffffffffffffffff1681526020018481526020018373ffffffffffffffffffffffffffffffffffffffff1673ffffffffffffffffffffffffffffffffffffffff168152602001828152602001945050505050600060405180830381600087803b1580156112c557600080fd5b505af11580156112d9573d6000803e3d6000fd5b50505050828260010181905550338260040160006101000a81548173ffffffffffffffffffffffffffffffffffffffff021916908373ffffffffffffffffffffffffffffffffffffffff160217905550837f978a1ad389cfabce0c6704cb09bdba905e14d783ebffb266d11f46e87f76d976846040518082815260200191505060405180910390a26114b5565b81600001543411156114af5760008260040160009054906101000a900473ffffffffffffffffffffffffffffffffffffffff1673ffffffffffffffffffffffffffffffffffffffff16141515611426578160040160009054906101000a900473ffffffffffffffffffffffffffffffffffffffff1673ffffffffffffffffffffffffffffffffffffffff166108fc83600001549081150290604051600060405180830381858888f19350505050158015611424573d6000803e3d6000fd5b505b348260000181905550338260040160006101000a81548173ffffffffffffffffffffffffffffffffffffffff021916908373ffffffffffffffffffffffffffffffffffffffff160217905550837f978a1ad389cfabce0c6704cb09bdba905e14d783ebffb266d11f46e87f76d976346040518082815260200191505060405180910390a26114b4565b600080fd5b5b50505050565b80156114e1578260036000848152602001908152602001600020600101819055506114fd565b8260036000848152602001908152602001600020600001819055505b505050565b60008060036000848152602001908152602001600020915042826002015410801561161c57503373ffffffffffffffffffffffffffffffffffffffff168260040160009054906101000a900473ffffffffffffffffffffffffffffffffffffffff1673ffffffffffffffffffffffffffffffffffffffff16148061161b57508160030160019054906101000a900473ffffffffffffffffffffffffffffffffffffffff1673ffffffffffffffffffffffffffffffffffffffff163373ffffffffffffffffffffffffffffffffffffffff1614801561161a575060008260040160009054906101000a900473ffffffffffffffffffffffffffffffffffffffff1673ffffffffffffffffffffffffffffffffffffffff16145b5b5b151561162457fe5b60008260000154111561184c5760008260040160009054906101000a900473ffffffffffffffffffffffffffffffffffffffff1673ffffffffffffffffffffffffffffffffffffffff16141515611833578160030160019054906101000a900473ffffffffffffffffffffffffffffffffffffffff1673ffffffffffffffffffffffffffffffffffffffff166108fc83600001549081150290604051600060405180830381858888f193505050501580156116e3573d6000803e3d6000fd5b50828260030160019054906101000a900473ffffffffffffffffffffffffffffffffffffffff1673ffffffffffffffffffffffffffffffffffffffff168360040160009054906101000a900473ffffffffffffffffffffffffffffffffffffffff1673ffffffffffffffffffffffffffffffffffffffff167f2e54bcd3cd97e7f372a13101ac533911426c3681920cb8b8b313de67c7a4998160405160405180910390a48160040160009054906101000a900473ffffffffffffffffffffffffffffffffffffffff168260030160016101000a81548173ffffffffffffffffffffffffffffffffffffffff021916908373ffffffffffffffffffffffffffffffffffffffff16021790555060008260040160006101000a81548173ffffffffffffffffffffffffffffffffffffffff021916908373ffffffffffffffffffffffffffffffffffffffff1602179055505b6000826000018190555060008260020181905550611b09565b600082600101541115611b085760008260040160009054906101000a900473ffffffffffffffffffffffffffffffffffffffff1673ffffffffffffffffffffffffffffffffffffffff16141515611af3576000809054906101000a900473ffffffffffffffffffffffffffffffffffffffff1690508073ffffffffffffffffffffffffffffffffffffffff166367fedaf08360030160019054906101000a900473ffffffffffffffffffffffffffffffffffffffff1684600101546040518363ffffffff167c0100000000000000000000000000000000000000000000000000000000028152600401808373ffffffffffffffffffffffffffffffffffffffff1673ffffffffffffffffffffffffffffffffffffffff16815260200182815260200192505050600060405180830381600087803b15801561198c57600080fd5b505af11580156119a0573d6000803e3d6000fd5b50505050828260030160019054906101000a900473ffffffffffffffffffffffffffffffffffffffff1673ffffffffffffffffffffffffffffffffffffffff168360040160009054906101000a900473ffffffffffffffffffffffffffffffffffffffff1673ffffffffffffffffffffffffffffffffffffffff167f2e54bcd3cd97e7f372a13101ac533911426c3681920cb8b8b313de67c7a4998160405160405180910390a48160040160009054906101000a900473ffffffffffffffffffffffffffffffffffffffff168260030160016101000a81548173ffffffffffffffffffffffffffffffffffffffff021916908373ffffffffffffffffffffffffffffffffffffffff16021790555060008260040160006101000a81548173ffffffffffffffffffffffffffffffffffffffff021916908373ffffffffffffffffffffffffffffffffffffffff1602179055505b60008260010181905550600082600201819055505b5b505050565b6000809054906101000a900473ffffffffffffffffffffffffffffffffffffffff1681565b600160009054906101000a900473ffffffffffffffffffffffffffffffffffffffff1681565b60c060405190810160405280600081526020016000815260200160008152602001600015158152602001600073ffffffffffffffffffffffffffffffffffffffff168152602001600073ffffffffffffffffffffffffffffffffffffffff16815250905600a165627a7a7230582009494afb1ec2ab110835d676ddb61862add552f118eb76b899d386a85d7885140029",
  "source": "pragma solidity ^0.4.0;\r\n\r\n/**\r\n * @title PRM Token Implementation Smart Contract\r\n * @author Alex \"AL_X\" Papageorgiou\r\n *  The stripped-down token interface of the PRM Token for the PRM contract to communicate with in its future deployment.\r\n *      This is purely to generate the function signatures in a human-readable & secure format instead of using address.call(bytes4(sha3(\"function_name(types)\")), parameters_values).\r\n */\r\ncontract PRMToken {\r\n    string public name = \"Photo Rights Management Token\";\r\n    string public symbol = \"PRM\";\r\n    address public admin;\r\n    address public PRMAddress;\r\n    uint8 public decimals = 16;\r\n    uint256 public totalFunds;\r\n    uint256 public contractCreation;\r\n    uint256 public totalSupply = 10000000*(10**16);\r\n    uint256 private decimalMultiplier = 10**16;\r\n    bool private running;\r\n    mapping(address => uint256) balances;\r\n    mapping(address => mapping (address => uint256)) allowed;\r\n\r\n    event Transfer(address indexed _from, address indexed _to, uint256 _value);\r\n    event Approval(address indexed _owner, address indexed _spender, uint256 _value);\r\n\r\n    /**\r\n     * @notice Ensures admin is caller\r\n     */\r\n    modifier isAdmin() {\r\n        require(msg.sender == admin);\r\n        _;\r\n    }\r\n\r\n    /**\r\n     * @notice Ensures PRM contract is caller\r\n     */\r\n    modifier isPRM() {\r\n        require(msg.sender == PRMAddress);\r\n        _;\r\n    }\r\n\r\n    /**\r\n    * @notice Re-entry protection\r\n    */\r\n    modifier isRunning() {\r\n        require(!running);\r\n        running = true;\r\n        _;\r\n        running = false;\r\n    }\r\n\r\n    /**\r\n     * @notice SafeMath Library safeSub Import\r\n     * \r\n            Since we are dealing with a limited currency\r\n            circulation of 10m tokens and values\r\n            that will not surpass the uint256 limit, only\r\n            safeSub is required to prevent underflows.\r\n    */\r\n    function safeSub(uint256 a, uint256 b) internal pure returns (uint256 z) {\r\n        assert((z = a - b) <= a);\r\n    }\r\n\r\n    /**\r\n     * @notice PRM Constructor\r\n     * \r\n            Normal constructor function, 8m tokens\r\n            on sale during the ICO, 250000 tokens for\r\n            bounties & 1.75m tokens for the developers.\r\n    */\r\n    constructor() public {\r\n        admin = msg.sender;\r\n        contractCreation = now;\r\n        balances[this] = 8000000*decimalMultiplier;\r\n        balances[msg.sender] = 2000000*decimalMultiplier;\r\n    }\r\n\r\n    /**\r\n     * @notice Check the name of the token ~ ERC-20 Standard\r\n     * @return {\r\n                    \"_name\": \"The token name\"\r\n                }\r\n     */\r\n    function name() external constant returns (string _name) {\r\n        return name;\r\n    }\r\n\r\n    /**\r\n     * @notice Check the symbol of the token ~ ERC-20 Standard\r\n     * @return {\r\n                    \"_symbol\": \"The token symbol\"\r\n                }\r\n     */\r\n    function symbol() external constant returns (string _symbol) {\r\n        return symbol;\r\n    }\r\n\r\n    /**\r\n     * @notice Check the decimals of the token ~ ERC-20 Standard\r\n     * @return {\r\n                    \"_decimals\": \"The token decimals\"\r\n                }\r\n     */\r\n    function decimals() external constant returns (uint8 _decimals) {\r\n        return decimals;\r\n    }\r\n\r\n    /**\r\n     * @notice Check the total supply of the token ~ ERC-20 Standard\r\n     * @return {\r\n                    \"_totalSupply\": \"Total supply of tokens\"\r\n                }\r\n     */\r\n    function totalSupply() external constant returns (uint256 _totalSupply) {\r\n        return totalSupply;\r\n    }\r\n\r\n    /**\r\n     * @notice Query the available balance of an address ~ ERC-20 Standard\r\n     * @param _owner The address whose balance we wish to retrieve\r\n     * @return {\r\n                    \"balance\": \"Balance of the address\"\r\n                }\r\n     */\r\n    function balanceOf(address _owner) external constant returns (uint256 balance) {\r\n        return balances[_owner];\r\n    }\r\n    /**\r\n     * @notice Query the amount of tokens the spender address can withdraw from the owner address ~ ERC-20 Standard\r\n     * @param _owner The address who owns the tokens\r\n     * @param _spender The address who can withdraw the tokens\r\n     * @return {\r\n                    \"remaining\": \"Remaining withdrawal amount\"\r\n                }\r\n     */\r\n    function allowance(address _owner, address _spender) external constant returns (uint256 remaining) {\r\n        return allowed[_owner][_spender];\r\n    }\r\n\r\n    /**\r\n     * @notice Transfer tokens from an address to another ~ ERC-20 Standard\r\n     * @param _from The address whose balance we will transfer\r\n     * @param _to The recipient address\r\n     * @param _value The amount of tokens to be transferred\r\n     */\r\n    function transferFrom(address _from, address _to, uint256 _value) external {\r\n        uint256 _allowance = allowed[_from][_to];\r\n        balances[_to] = balances[_to]+_value;\r\n        balances[_from] = safeSub(balances[_from], _value);\r\n        allowed[_from][_to] = safeSub(_allowance, _value);\r\n        emit Transfer(_from, _to, _value);\r\n    }\r\n\r\n    /**\r\n     * @notice Authorize an address to retrieve funds from you ~ ERC-20 Standard\r\n     * \r\n            Each approval comes with a default cooldown of 30 minutes\r\n            to prevent against the ERC-20 race attack.\r\n     * @param _spender The address you wish to authorize\r\n     * @param _value The amount of tokens you wish to authorize\r\n     */\r\n    function approve(address _spender, uint256 _value) external {\r\n        allowed[msg.sender][_spender] = _value;\r\n        emit Approval(msg.sender, _spender, _value);\r\n    }\r\n\r\n    /**\r\n     * @notice Transfer the specified amount to the target address ~ ERC-20 Standard\r\n     * \r\n            A boolean is returned so that callers of the function\r\n            will know if their transaction went through.\r\n     * @param _to The address you wish to send the tokens to\r\n     * @param _value The amount of tokens you wish to send\r\n     * @return {\r\n                    \"success\": \"Transaction success\"\r\n                }\r\n     */\r\n    function transfer(address _to, uint256 _value) external isRunning returns (bool success) {\r\n        bytes memory empty;\r\n        if (_to == address(this)) {\r\n            revert();\r\n        } else if (isContract(_to)) {\r\n            return transferToContract(_to, _value, empty);\r\n        } else {\r\n            return transferToAddress(_to, _value, empty);\r\n        }\r\n    }\r\n\r\n    /**\r\n     * @notice Check whether address is a contract ~ ERC-223 Proposed Standard\r\n     * @param _address The address to check\r\n     * @return {\r\n                    \"is_contract\": \"Result of query\"\r\n                }\r\n     */\r\n    function isContract(address _address) internal view returns (bool is_contract) {\r\n        uint length;\r\n        assembly {\r\n            length := extcodesize(_address)\r\n        }\r\n        return length > 0;\r\n    }\r\n\r\n    /**\r\n     * @notice Transfer the specified amount to the target address with embedded bytes data ~ ERC-223 Proposed Standard\r\n     * @param _to The address to transfer to\r\n     * @param _value The amount of tokens to transfer\r\n     * @param _data Any extra embedded data of the transaction\r\n     * @return {\r\n                    \"success\": \"Transaction success\"\r\n                }\r\n     */\r\n    function transfer(address _to, uint256 _value, bytes _data) external isRunning returns (bool success) {\r\n        if (_to == address(this)) {\r\n            revert();\r\n        } else if (isContract(_to)) {\r\n            return transferToContract(_to, _value, _data);\r\n        } else {\r\n            return transferToAddress(_to, _value, _data);\r\n        }\r\n    }\r\n\r\n    /**\r\n     * @notice Handles transfer to an ECA (Externally Controlled Account), a normal account ~ ERC-223 Proposed Standard\r\n     * @param _to The address to transfer to\r\n     * @param _value The amount of tokens to transfer\r\n     * @param _data Any extra embedded data of the transaction\r\n     * @return {\r\n                    \"success\": \"Transaction success\"\r\n                }\r\n     */\r\n    function transferToAddress(address _to, uint256 _value, bytes _data) internal returns (bool success) {\r\n        balances[msg.sender] = safeSub(balances[msg.sender], _value);\r\n        balances[_to] = balances[_to]+_value;\r\n        emit Transfer(msg.sender, _to, _value);\r\n        return true;\r\n    }\r\n\r\n    /**\r\n     * @notice Handles transfer to a contract ~ ERC-223 Proposed Standard\r\n     * @param _to The address to transfer to\r\n     * @param _value The amount of tokens to transfer\r\n     * @param _data Any extra embedded data of the transaction\r\n     * @return {\r\n                    \"success\": \"Transaction success\"\r\n                }\r\n     */\r\n    function transferToContract(address _to, uint256 _value, bytes _data) internal returns (bool success) {\r\n        balances[msg.sender] = safeSub(balances[msg.sender], _value);\r\n        balances[_to] = balances[_to] + _value;\r\n        PRMToken rec = PRMToken(_to);\r\n        rec.tokenFallback(msg.sender, _value, _data);\r\n        emit Transfer(msg.sender, _to, _value);\r\n        return true;\r\n    }\r\n\r\n    /**\r\n     * @notice Reverting tokenFallback method to ensure ERC-223 compatibility & prevent accidental ERC-223 transfers\r\n     * @param _sender The address who sent the ERC-223 tokens\r\n     * @param _value The amount of tokens the address sent to this contract\r\n     * @param _data Any embedded data of the transaction\r\n     */\r\n    function tokenFallback(address _sender, uint256 _value, bytes _data) public {\r\n        revert();\r\n    }\r\n\r\n    /**\r\n     * @notice Retrieve ERC Tokens sent to contract\r\n     *  Feel free to contact us and retrieve your ERC tokens should you wish so.\r\n     * @param _token The token contract address\r\n     */\r\n    function claimTokens(address _token) isAdmin external {\r\n        require(_token != address(this));\r\n        PRMToken token = PRMToken(_token);\r\n        uint balance = token.balanceOf(this);\r\n        token.transfer(admin, balance);\r\n    }\r\n\r\n    /**\r\n     * @notice Fallback function\r\n     *  Triggered when Ether is sent to the contract. Adjusts price based on time.\r\n     */\r\n    function() payable external {\r\n        require(msg.value > 0);\r\n        uint256 tokenAmount;\r\n        tokenAmount = tokenMultiplier()*msg.value;\r\n        balances[msg.sender] += tokenAmount;\r\n        balances[this] -= tokenAmount;\r\n        totalFunds += msg.value;\r\n        emit Transfer(this, msg.sender, tokenAmount);\r\n        admin.transfer(msg.value);\r\n    }\r\n\r\n    /**\r\n     * @notice Token Multiplier getter\r\n     *  Allows users who invest early to get more tokens per Ether\r\n     */\r\n    function tokenMultiplier() public view returns (uint8) {\r\n        if (now < contractCreation + 1 days) {\r\n            return 20;\r\n        } else if (now < contractCreation + 7 days) {\r\n            return 17;\r\n        } else if (now < contractCreation + 14 days) {\r\n            return 15;\r\n        } else if (now < contractCreation + 21 days) {\r\n            return 12;\r\n        } else {\r\n            return 10;\r\n        }\r\n    }\r\n\r\n    /**\r\n     * @notice Burning function\r\n     * \r\n     *      Burns any leftover ICO tokens to ensure a proper value is\r\n     *      set in the Coin Market Cap.\r\n     */\r\n    function burnLeftovers() external {\r\n        require(contractCreation + 30 days < now && balances[this] > 0);\r\n        totalSupply -= balances[this];\r\n        balances[this] = 0;\r\n    }\r\n\r\n    /**\r\n     * @notice Set the PRM Address. Interoperable only with the PRM Address.\r\n     * @param _PRMAddress The address of the PRM  contract\r\n     * \r\n     *      This function is unnecessary in case this contract is deployed\r\n     *      after the PRM contract has been as the address can be hard-coded.\r\n     */\r\n    function setPRMAddress(address _PRMAddress) external isAdmin {\r\n        PRMAddress = _PRMAddress;\r\n    }\r\n\r\n    /**\r\n     * @notice Reflect the latest photo auction bid on the appropriate balances\r\n     * @param _previousBidder The address of the previous bidder\r\n     * @param _previousBid The value of the previous bid\r\n     * @param _newBidder The address of the new bidder\r\n     * @param _newBid The value of the new bid\r\n     */\r\n    function refundAndBid(address _previousBidder, uint256 _previousBid, address _newBidder, uint256 _newBid) external isPRM {\r\n        if (_previousBidder == 0x0) {\r\n            balances[msg.sender] += _newBid;\r\n        } else {\r\n            balances[msg.sender] += (_newBid - _previousBid);\r\n        }\r\n        balances[_previousBidder] += _previousBid;\r\n        balances[_newBidder] = safeSub(balances[_newBidder], _newBid);\r\n    }\r\n\r\n    /**\r\n     * @notice Reflect a photo purchase on the appropriate balances\r\n     * @param _buyer The address of the buyer\r\n     * @param _amount The value of the purchase\r\n     * @param _owner The address of the recipient\r\n     */\r\n    function saleTransfer(address _buyer, uint256 _amount, address _owner) external isPRM {\r\n        balances[_owner] += _amount;\r\n        balances[_buyer] = safeSub(balances[_buyer], _amount);\r\n    }\r\n\r\n    /**\r\n     * @notice Reflect an auction's finalization on the appropriate balances\r\n     * @param _owner The address of the auction's owner\r\n     * @param _bid The value of the latest bid\r\n     */\r\n    function releaseBid(address _owner, uint256 _bid) external isPRM {\r\n        balances[_owner] += _bid;\r\n        //Underflow impossible to occur due to Smart Contract workflow\r\n        balances[msg.sender] -= _bid;\r\n    }\r\n}\r\n\r\n\r\n/**\r\n * @title PRM (Photo Rights Management) Smart Contract\r\n * @author Alex \"AL_X\" Papageorgiou\r\n *  The smart contract facilitating the operation of the X platform & handling the sale/auction of photos as well as the ownership.\r\n */\r\ncontract PRM {\r\n    address public PRMTokenAddress;\r\n    address public admin;\r\n\r\n    uint256 public incrementalID = 0;\r\n\r\n    mapping(uint256 => PhotoAsset) photoAssets;\r\n\r\n    /**\r\n     *  All photo details gathered in one place for\r\n     *      easy access and a single mapping reference\r\n     */\r\n    struct PhotoAsset {\r\n        uint256 photoPrice;\r\n        uint256 photoTokenPrice;\r\n        uint256 expiryDate;\r\n        bool saleType;\r\n        address owner;\r\n        address lastBidder;\r\n    }\r\n\r\n    event PhotoOwnershipTransfer(address indexed _newOwner, address indexed _previousOwner, uint256 indexed _photoID);\r\n    event PhotoRelease(address indexed _viewer, uint256 indexed _photoID);\r\n    event PhotoBid(uint256 indexed _photoID, uint256 _bidPrice);\r\n    event PhotoUpload(address indexed _uploader, uint256 _photoID);\r\n\r\n    /**\r\n\t * @notice Ensures admin is the caller of a function\r\n\t */\r\n    modifier isAdmin() {\r\n        require(msg.sender == admin);\r\n        //Continue executing rest of method body\r\n        _;\r\n    }\r\n\r\n    /**\r\n     * @notice PRM Constructor\r\n     */\r\n    constructor() public {\r\n        admin = msg.sender;\r\n    }\r\n\r\n    /**\r\n     * @notice Set the PRM Token Address. Interoperable with PRMToken schema-compliant tokens as well\r\n     * @param _PRMTokenAddress The address of the PRM Token contract\r\n     *  This function is unnecessary in case this contract is deployed\r\n     *      after the token contract has been as the address can be hard-coded.\r\n     */\r\n    function setPRMTokenAddress(address _PRMTokenAddress) external isAdmin {\r\n        PRMTokenAddress = _PRMTokenAddress;\r\n    }\r\n\r\n    /**\r\n     * @notice Enables retrieval of ERC-20 compliant tokens\r\n     * @param _tokenAddress The address of the ERC-20 compliant token\r\n     *  Feel free to reach out to us for any accidental loss\r\n     *      of tokens to retrieve them.\r\n     */\r\n    function retrieveAccidentalTransfers(address _tokenAddress) external isAdmin {\r\n        require(_tokenAddress != PRMTokenAddress);\r\n        PRMToken tokenObject = PRMToken(_tokenAddress);\r\n        uint256 fullBalance = tokenObject.balanceOf(this);\r\n        tokenObject.transfer(admin, fullBalance);\r\n    }\r\n\r\n    /**\r\n     * @notice Retrieve uploaded photo info based on the photo's ID\r\n     * @param _photoID The ID of the photo whose info we wish to retrieve\r\n     * @return The photo's contained information as stored within the object's structure\r\n     */\r\n    function getPhotoInfo(uint _photoID) external view returns (uint256, uint256, uint256, bool, address, address) {\r\n        PhotoAsset memory photo = photoAssets[_photoID];\r\n        return (photo.photoPrice, photo.photoTokenPrice, photo.expiryDate, photo.saleType, photo.owner, photo.lastBidder);\r\n    }\r\n\r\n    /**\r\n     * @notice Upload photo to the PRM network & set for sale as an opt-in\r\n     * @param _saleType The type of sale should there be one (1 = Single Sale, 2 = Reselling, 2< = Auction Sale & Hour Duration)\r\n     * @param _salePrice The price of the photo should a sale take place\r\n     * @param _isToken Whether tokens should be used for the sale or not\r\n     */\r\n    function photoUpload(uint256 _saleType, uint256 _salePrice, bool _isToken) external {\r\n        photoAssets[incrementalID].owner = msg.sender;\r\n        if (_saleType == 1) {\r\n            photoSale(_salePrice, incrementalID, _isToken);\r\n        } else if (_saleType == 2) {\r\n            photoResale(_salePrice, incrementalID, _isToken);\r\n        } else if (_saleType > 2) {\r\n            photoAuction(_salePrice, _saleType, incrementalID, _isToken);\r\n        }\r\n        emit PhotoUpload(msg.sender, incrementalID);\r\n        incrementalID++;\r\n    }\r\n\r\n    /**\r\n     * @notice Set photo up for sale\r\n     * @param _salePrice The price to sell the photo at\r\n     * @param _photoID The photo's ID\r\n     * @param _isToken Whether tokens should be used for the sale or not\r\n     */\r\n    function photoSale(uint256 _salePrice, uint256 _photoID, bool _isToken) public {\r\n        if (_isToken) {\r\n            photoAssets[_photoID].photoTokenPrice = _salePrice;\r\n        } else {\r\n            photoAssets[_photoID].photoPrice = _salePrice;\r\n        }\r\n    }\r\n\r\n    /**\r\n     * @notice Set photo up for resale\r\n     * @param _resalePrice The price to re-sell the photo at\r\n     * @param _photoID The photo's ID\r\n     * @param _isToken Whether tokens should be used for the sale or not\r\n     */\r\n    function photoResale(uint256 _resalePrice, uint256 _photoID, bool _isToken) public {\r\n        PhotoAsset storage asset = photoAssets[_photoID];\r\n        if (_isToken) {\r\n            asset.photoTokenPrice = _resalePrice;\r\n        } else {\r\n            asset.photoPrice = _resalePrice;\r\n        }\r\n        asset.saleType = true;\r\n    }\r\n\r\n    /**\r\n     * @notice Set photo up for auction\r\n     * @param _startingBid The minimum bid requirement\r\n     * @param _auctionDuration The duration of the auction in days\r\n     * @param _photoID The photo's ID\r\n     * @param _isToken Whether tokens should be used for the sale or not\r\n     */\r\n    function photoAuction(uint256 _startingBid, uint256 _auctionDuration, uint256 _photoID, bool _isToken) public {\r\n        PhotoAsset storage asset = photoAssets[_photoID];\r\n        if (_isToken) {\r\n            asset.photoTokenPrice = _startingBid;\r\n        } else {\r\n            asset.photoPrice = _startingBid;\r\n        }\r\n        asset.expiryDate = now + (1 hours * _auctionDuration);\r\n    }\r\n\r\n    /**\r\n     * @notice Bid on auction of photo\r\n     * @param _photoID The ID of the photo\r\n     * @param _tokenAmount The amount of tokens to use, should the token system be in effect\r\n     */\r\n    function bidOnAuction(uint256 _photoID, uint256 _tokenAmount) external payable {\r\n        PhotoAsset storage asset = photoAssets[_photoID];\r\n        assert(asset.expiryDate > now);\r\n        if (_tokenAmount > asset.photoTokenPrice) {\r\n            PRMToken tokenObject = PRMToken(PRMTokenAddress);\r\n            tokenObject.refundAndBid(asset.lastBidder, asset.photoTokenPrice, msg.sender, _tokenAmount);\r\n            asset.photoTokenPrice = _tokenAmount;\r\n            asset.lastBidder = msg.sender;\r\n            emit PhotoBid(_photoID, _tokenAmount);\r\n        } else if (msg.value > asset.photoPrice) {\r\n            if (asset.lastBidder != 0x0) {\r\n                asset.lastBidder.transfer(asset.photoPrice);\r\n            }\r\n            asset.photoPrice = msg.value;\r\n            asset.lastBidder = msg.sender;\r\n            emit PhotoBid(_photoID, msg.value);\r\n        } else {\r\n            revert();\r\n        }\r\n    }\r\n\r\n    /**\r\n     * @notice Purchase right to view & use a photo\r\n     * @param _photoID The ID of the photo\r\n     * @param _tokenAmount The amount of tokens to use, should the token system be in effect\r\n     */\r\n    function purchaseUsageRight(uint256 _photoID, uint256 _tokenAmount) external payable {\r\n        PhotoAsset storage asset = photoAssets[_photoID];\r\n        assert(asset.saleType);\r\n        if (_tokenAmount == asset.photoTokenPrice && asset.photoTokenPrice > 0) {\r\n            PRMToken tokenObject = PRMToken(PRMTokenAddress);\r\n            tokenObject.saleTransfer(msg.sender, _tokenAmount, asset.owner);\r\n            emit PhotoRelease(msg.sender, _photoID);\r\n        } else if (msg.value == asset.photoPrice && asset.photoPrice > 0) {\r\n            asset.owner.transfer(msg.value);\r\n            emit PhotoRelease(msg.sender, _photoID);\r\n        } else {\r\n            revert();\r\n        }\r\n    }\r\n\r\n    /**\r\n     * @notice Purchase complete ownership of photo\r\n     * @param _photoID The ID of the photo\r\n     * @param _tokenAmount The amount of tokens to use, should the token system be in effect\r\n     */\r\n    function purchaseOwnershipRight(uint256 _photoID, uint256 _tokenAmount) external payable {\r\n        PhotoAsset storage asset = photoAssets[_photoID];\r\n        assert(!asset.saleType && asset.expiryDate == 0);\r\n        if (_tokenAmount == asset.photoTokenPrice && asset.photoTokenPrice > 0) {\r\n            PRMToken tokenObject = PRMToken(PRMTokenAddress);\r\n            tokenObject.saleTransfer(msg.sender, _tokenAmount, asset.owner);\r\n            asset.photoTokenPrice = 0;\r\n            emit PhotoOwnershipTransfer(msg.sender, asset.owner, _photoID);\r\n            asset.owner = msg.sender;\r\n        } else if (msg.value == asset.photoPrice && asset.photoPrice > 0) {\r\n            asset.owner.transfer(msg.value);\r\n            asset.photoPrice = 0;\r\n            emit PhotoOwnershipTransfer(msg.sender, asset.owner, _photoID);\r\n            asset.owner = msg.sender;\r\n        } else {\r\n            revert();\r\n        }\r\n    }\r\n\r\n    /**\r\n     * @notice Resolve auction outcome\r\n     * @param _photoID The ID of the photo\r\n     */\r\n    function finalizeAuction(uint256 _photoID) external {\r\n        PhotoAsset storage asset = photoAssets[_photoID];\r\n        assert(asset.expiryDate < now && (asset.lastBidder == msg.sender || (msg.sender == asset.owner && asset.lastBidder == 0x0)));\r\n        if (asset.photoPrice > 0) {\r\n            if (asset.lastBidder != 0x0) {\r\n              asset.owner.transfer(asset.photoPrice);\r\n              emit PhotoOwnershipTransfer(asset.lastBidder, asset.owner, _photoID);\r\n              asset.owner = asset.lastBidder;\r\n              asset.lastBidder = 0x0;\r\n            }\r\n            asset.photoPrice = 0;\r\n            asset.expiryDate = 0;\r\n        } else if (asset.photoTokenPrice > 0) {\r\n            if (asset.lastBidder != 0x0) {\r\n              PRMToken tokenObject = PRMToken(PRMTokenAddress);\r\n              tokenObject.releaseBid(asset.owner, asset.photoTokenPrice);\r\n              emit PhotoOwnershipTransfer(asset.lastBidder, asset.owner, _photoID);\r\n              asset.owner = asset.lastBidder;\r\n              asset.lastBidder = 0x0;\r\n            }\r\n            asset.photoTokenPrice = 0;\r\n            asset.expiryDate = 0;\r\n        }\r\n    }\r\n\r\n    /**\r\n     * @notice Reverting fallback to prevent accidental Ethereum transfers\r\n     */\r\n    function() public payable {\r\n        revert();\r\n    }\r\n}",
  "sourcePath": "C:\\Users\\XBouchlis\\Documents\\bloomen-backend\\contracts\\PRM.sol",
  "compiler": {
    "name": "solc",
    "version": "0.4.24+commit.e67f0147.Emscripten.clang"
  },
  "schemaVersion": "2.0.1",
  "updatedAt": "2019-11-18T12:20:52.733Z"
}