{
  "contractName": "PRMToken",
  "abi": [
    {
      "constant": true,
      "inputs": [],
      "name": "contractCreation",
      "outputs": [
        {
          "name": "",
          "type": "uint256"
        }
      ],
      "payable": false,
      "stateMutability": "view",
      "type": "function"
    },
    {
      "constant": true,
      "inputs": [],
      "name": "totalFunds",
      "outputs": [
        {
          "name": "",
          "type": "uint256"
        }
      ],
      "payable": false,
      "stateMutability": "view",
      "type": "function"
    },
    {
      "constant": true,
      "inputs": [],
      "name": "PRMAddress",
      "outputs": [
        {
          "name": "",
          "type": "address"
        }
      ],
      "payable": false,
      "stateMutability": "view",
      "type": "function"
    },
    {
      "constant": true,
      "inputs": [],
      "name": "admin",
      "outputs": [
        {
          "name": "",
          "type": "address"
        }
      ],
      "payable": false,
      "stateMutability": "view",
      "type": "function"
    },
    {
      "inputs": [],
      "payable": false,
      "stateMutability": "nonpayable",
      "type": "constructor"
    },
    {
      "payable": true,
      "stateMutability": "payable",
      "type": "fallback"
    },
    {
      "anonymous": false,
      "inputs": [
        {
          "indexed": true,
          "name": "_from",
          "type": "address"
        },
        {
          "indexed": true,
          "name": "_to",
          "type": "address"
        },
        {
          "indexed": false,
          "name": "_value",
          "type": "uint256"
        }
      ],
      "name": "Transfer",
      "type": "event"
    },
    {
      "anonymous": false,
      "inputs": [
        {
          "indexed": true,
          "name": "_owner",
          "type": "address"
        },
        {
          "indexed": true,
          "name": "_spender",
          "type": "address"
        },
        {
          "indexed": false,
          "name": "_value",
          "type": "uint256"
        }
      ],
      "name": "Approval",
      "type": "event"
    },
    {
      "constant": true,
      "inputs": [],
      "name": "name",
      "outputs": [
        {
          "name": "_name",
          "type": "string"
        }
      ],
      "payable": false,
      "stateMutability": "view",
      "type": "function"
    },
    {
      "constant": true,
      "inputs": [],
      "name": "symbol",
      "outputs": [
        {
          "name": "_symbol",
          "type": "string"
        }
      ],
      "payable": false,
      "stateMutability": "view",
      "type": "function"
    },
    {
      "constant": true,
      "inputs": [],
      "name": "decimals",
      "outputs": [
        {
          "name": "_decimals",
          "type": "uint8"
        }
      ],
      "payable": false,
      "stateMutability": "view",
      "type": "function"
    },
    {
      "constant": true,
      "inputs": [],
      "name": "totalSupply",
      "outputs": [
        {
          "name": "_totalSupply",
          "type": "uint256"
        }
      ],
      "payable": false,
      "stateMutability": "view",
      "type": "function"
    },
    {
      "constant": true,
      "inputs": [
        {
          "name": "_owner",
          "type": "address"
        }
      ],
      "name": "balanceOf",
      "outputs": [
        {
          "name": "balance",
          "type": "uint256"
        }
      ],
      "payable": false,
      "stateMutability": "view",
      "type": "function"
    },
    {
      "constant": true,
      "inputs": [
        {
          "name": "_owner",
          "type": "address"
        },
        {
          "name": "_spender",
          "type": "address"
        }
      ],
      "name": "allowance",
      "outputs": [
        {
          "name": "remaining",
          "type": "uint256"
        }
      ],
      "payable": false,
      "stateMutability": "view",
      "type": "function"
    },
    {
      "constant": false,
      "inputs": [
        {
          "name": "_from",
          "type": "address"
        },
        {
          "name": "_to",
          "type": "address"
        },
        {
          "name": "_value",
          "type": "uint256"
        }
      ],
      "name": "transferFrom",
      "outputs": [],
      "payable": false,
      "stateMutability": "nonpayable",
      "type": "function"
    },
    {
      "constant": false,
      "inputs": [
        {
          "name": "_spender",
          "type": "address"
        },
        {
          "name": "_value",
          "type": "uint256"
        }
      ],
      "name": "approve",
      "outputs": [],
      "payable": false,
      "stateMutability": "nonpayable",
      "type": "function"
    },
    {
      "constant": false,
      "inputs": [
        {
          "name": "_to",
          "type": "address"
        },
        {
          "name": "_value",
          "type": "uint256"
        },
        {
          "name": "_data",
          "type": "bytes"
        }
      ],
      "name": "transfer",
      "outputs": [
        {
          "name": "success",
          "type": "bool"
        }
      ],
      "payable": false,
      "stateMutability": "nonpayable",
      "type": "function"
    },
    {
      "constant": false,
      "inputs": [
        {
          "name": "_to",
          "type": "address"
        },
        {
          "name": "_value",
          "type": "uint256"
        }
      ],
      "name": "transfer",
      "outputs": [
        {
          "name": "success",
          "type": "bool"
        }
      ],
      "payable": false,
      "stateMutability": "nonpayable",
      "type": "function"
    },
    {
      "constant": false,
      "inputs": [
        {
          "name": "_sender",
          "type": "address"
        },
        {
          "name": "_value",
          "type": "uint256"
        },
        {
          "name": "_data",
          "type": "bytes"
        }
      ],
      "name": "tokenFallback",
      "outputs": [],
      "payable": false,
      "stateMutability": "nonpayable",
      "type": "function"
    },
    {
      "constant": false,
      "inputs": [
        {
          "name": "_token",
          "type": "address"
        }
      ],
      "name": "claimTokens",
      "outputs": [],
      "payable": false,
      "stateMutability": "nonpayable",
      "type": "function"
    },
    {
      "constant": true,
      "inputs": [],
      "name": "tokenMultiplier",
      "outputs": [
        {
          "name": "",
          "type": "uint8"
        }
      ],
      "payable": false,
      "stateMutability": "view",
      "type": "function"
    },
    {
      "constant": false,
      "inputs": [],
      "name": "burnLeftovers",
      "outputs": [],
      "payable": false,
      "stateMutability": "nonpayable",
      "type": "function"
    },
    {
      "constant": false,
      "inputs": [
        {
          "name": "_PRMAddress",
          "type": "address"
        }
      ],
      "name": "setPRMAddress",
      "outputs": [],
      "payable": false,
      "stateMutability": "nonpayable",
      "type": "function"
    },
    {
      "constant": false,
      "inputs": [
        {
          "name": "_previousBidder",
          "type": "address"
        },
        {
          "name": "_previousBid",
          "type": "uint256"
        },
        {
          "name": "_newBidder",
          "type": "address"
        },
        {
          "name": "_newBid",
          "type": "uint256"
        }
      ],
      "name": "refundAndBid",
      "outputs": [],
      "payable": false,
      "stateMutability": "nonpayable",
      "type": "function"
    },
    {
      "constant": false,
      "inputs": [
        {
          "name": "_buyer",
          "type": "address"
        },
        {
          "name": "_amount",
          "type": "uint256"
        },
        {
          "name": "_owner",
          "type": "address"
        }
      ],
      "name": "saleTransfer",
      "outputs": [],
      "payable": false,
      "stateMutability": "nonpayable",
      "type": "function"
    },
    {
      "constant": false,
      "inputs": [
        {
          "name": "_owner",
          "type": "address"
        },
        {
          "name": "_bid",
          "type": "uint256"
        }
      ],
      "name": "releaseBid",
      "outputs": [],
      "payable": false,
      "stateMutability": "nonpayable",
      "type": "function"
    }
  ],
  "bytecode": "0x60806040526040805190810160405280601d81526020017f50686f746f20526967687473204d616e6167656d656e7420546f6b656e0000008152506000908051906020019062000051929190620001c7565b506040805190810160405280600381526020017f50524d0000000000000000000000000000000000000000000000000000000000815250600190805190602001906200009f929190620001c7565b506010600360146101000a81548160ff021916908360ff16021790555069152d02c7e14af6800000600655662386f26fc10000600755348015620000e257600080fd5b5033600260006101000a81548173ffffffffffffffffffffffffffffffffffffffff021916908373ffffffffffffffffffffffffffffffffffffffff16021790555042600581905550600754627a120002600960003073ffffffffffffffffffffffffffffffffffffffff1673ffffffffffffffffffffffffffffffffffffffff16815260200190815260200160002081905550600754621e848002600960003373ffffffffffffffffffffffffffffffffffffffff1673ffffffffffffffffffffffffffffffffffffffff1681526020019081526020016000208190555062000276565b828054600181600116156101000203166002900490600052602060002090601f016020900481019282601f106200020a57805160ff19168380011785556200023b565b828001600101855582156200023b579182015b828111156200023a5782518255916020019190600101906200021d565b5b5090506200024a91906200024e565b5090565b6200027391905b808211156200026f57600081600090555060010162000255565b5090565b90565b611f6280620002866000396000f300608060405260043610610128576000357c0100000000000000000000000000000000000000000000000000000000900463ffffffff16806306fdde03146102c2578063095ea7b31461035257806318160ddd1461039f57806323b872dd146103ca578063313ce56714610437578063557323bd1461046857806367fedaf0146104df57806370a082311461052c5780637dc8549d1461058357806395d89b41146105ae578063968ed6001461063e578063a9059cbb14610669578063b927a92b146106ce578063ba3f5a1214610725578063be45fd6214610756578063c0ee0b8a146107d3578063dd62ed3e14610866578063df8de3e7146108dd578063e11398e814610920578063e391607c14610937578063ef31b35c146109a4578063f851a440146109e7575b6000803411151561013857600080fd5b34610141610a3e565b60ff1602905080600960003373ffffffffffffffffffffffffffffffffffffffff1673ffffffffffffffffffffffffffffffffffffffff1681526020019081526020016000206000828254019250508190555080600960003073ffffffffffffffffffffffffffffffffffffffff1673ffffffffffffffffffffffffffffffffffffffff16815260200190815260200160002060008282540392505081905550346004600082825401925050819055503373ffffffffffffffffffffffffffffffffffffffff163073ffffffffffffffffffffffffffffffffffffffff167fddf252ad1be2c89b69c2b068fc378daa952ba7f163c4a11628f55a4df523b3ef836040518082815260200191505060405180910390a3600260009054906101000a900473ffffffffffffffffffffffffffffffffffffffff1673ffffffffffffffffffffffffffffffffffffffff166108fc349081150290604051600060405180830381858888f193505050501580156102be573d6000803e3d6000fd5b5050005b3480156102ce57600080fd5b506102d7610aa8565b6040518080602001828103825283818151815260200191508051906020019080838360005b838110156103175780820151818401526020810190506102fc565b50505050905090810190601f1680156103445780820380516001836020036101000a031916815260200191505b509250505060405180910390f35b34801561035e57600080fd5b5061039d600480360381019080803573ffffffffffffffffffffffffffffffffffffffff16906020019092919080359060200190929190505050610b4a565b005b3480156103ab57600080fd5b506103b4610c34565b6040518082815260200191505060405180910390f35b3480156103d657600080fd5b50610435600480360381019080803573ffffffffffffffffffffffffffffffffffffffff169060200190929190803573ffffffffffffffffffffffffffffffffffffffff16906020019092919080359060200190929190505050610c3e565b005b34801561044357600080fd5b5061044c610ec5565b604051808260ff1660ff16815260200191505060405180910390f35b34801561047457600080fd5b506104dd600480360381019080803573ffffffffffffffffffffffffffffffffffffffff16906020019092919080359060200190929190803573ffffffffffffffffffffffffffffffffffffffff16906020019092919080359060200190929190505050610edc565b005b3480156104eb57600080fd5b5061052a600480360381019080803573ffffffffffffffffffffffffffffffffffffffff169060200190929190803590602001909291905050506110d8565b005b34801561053857600080fd5b5061056d600480360381019080803573ffffffffffffffffffffffffffffffffffffffff1690602001909291905050506111d2565b6040518082815260200191505060405180910390f35b34801561058f57600080fd5b5061059861121b565b6040518082815260200191505060405180910390f35b3480156105ba57600080fd5b506105c3611221565b6040518080602001828103825283818151815260200191508051906020019080838360005b838110156106035780820151818401526020810190506105e8565b50505050905090810190601f1680156106305780820380516001836020036101000a031916815260200191505b509250505060405180910390f35b34801561064a57600080fd5b506106536112c3565b6040518082815260200191505060405180910390f35b34801561067557600080fd5b506106b4600480360381019080803573ffffffffffffffffffffffffffffffffffffffff169060200190929190803590602001909291905050506112c9565b604051808215151515815260200191505060405180910390f35b3480156106da57600080fd5b506106e361138d565b604051808273ffffffffffffffffffffffffffffffffffffffff1673ffffffffffffffffffffffffffffffffffffffff16815260200191505060405180910390f35b34801561073157600080fd5b5061073a610a3e565b604051808260ff1660ff16815260200191505060405180910390f35b34801561076257600080fd5b506107b9600480360381019080803573ffffffffffffffffffffffffffffffffffffffff169060200190929190803590602001909291908035906020019082018035906020019190919293919293905050506113b3565b604051808215151515815260200191505060405180910390f35b3480156107df57600080fd5b50610864600480360381019080803573ffffffffffffffffffffffffffffffffffffffff16906020019092919080359060200190929190803590602001908201803590602001908080601f01602080910402602001604051908101604052809392919081815260200183838082843782019150505050505091929192905050506114da565b005b34801561087257600080fd5b506108c7600480360381019080803573ffffffffffffffffffffffffffffffffffffffff169060200190929190803573ffffffffffffffffffffffffffffffffffffffff1690602001909291905050506114df565b6040518082815260200191505060405180910390f35b3480156108e957600080fd5b5061091e600480360381019080803573ffffffffffffffffffffffffffffffffffffffff169060200190929190505050611566565b005b34801561092c57600080fd5b506109356117e1565b005b34801561094357600080fd5b506109a2600480360381019080803573ffffffffffffffffffffffffffffffffffffffff16906020019092919080359060200190929190803573ffffffffffffffffffffffffffffffffffffffff1690602001909291905050506118d7565b005b3480156109b057600080fd5b506109e5600480360381019080803573ffffffffffffffffffffffffffffffffffffffff169060200190929190505050611a11565b005b3480156109f357600080fd5b506109fc611ab1565b604051808273ffffffffffffffffffffffffffffffffffffffff1673ffffffffffffffffffffffffffffffffffffffff16815260200191505060405180910390f35b60006201518060055401421015610a585760149050610aa5565b62093a8060055401421015610a705760119050610aa5565b6212750060055401421015610a8857600f9050610aa5565b621baf8060055401421015610aa057600c9050610aa5565b600a90505b90565b606060008054600181600116156101000203166002900480601f016020809104026020016040519081016040528092919081815260200182805460018160011615610100020316600290048015610b405780601f10610b1557610100808354040283529160200191610b40565b820191906000526020600020905b815481529060010190602001808311610b2357829003601f168201915b5050505050905090565b80600a60003373ffffffffffffffffffffffffffffffffffffffff1673ffffffffffffffffffffffffffffffffffffffff16815260200190815260200160002060008473ffffffffffffffffffffffffffffffffffffffff1673ffffffffffffffffffffffffffffffffffffffff168152602001908152602001600020819055508173ffffffffffffffffffffffffffffffffffffffff163373ffffffffffffffffffffffffffffffffffffffff167f8c5be1e5ebec7d5bd14f71427d1e84f3dd0314c0f7b2291e5b200ac8c7c3b925836040518082815260200191505060405180910390a35050565b6000600654905090565b6000600a60008573ffffffffffffffffffffffffffffffffffffffff1673ffffffffffffffffffffffffffffffffffffffff16815260200190815260200160002060008473ffffffffffffffffffffffffffffffffffffffff1673ffffffffffffffffffffffffffffffffffffffff16815260200190815260200160002054905081600960008573ffffffffffffffffffffffffffffffffffffffff1673ffffffffffffffffffffffffffffffffffffffff1681526020019081526020016000205401600960008573ffffffffffffffffffffffffffffffffffffffff1673ffffffffffffffffffffffffffffffffffffffff16815260200190815260200160002081905550610d8d600960008673ffffffffffffffffffffffffffffffffffffffff1673ffffffffffffffffffffffffffffffffffffffff1681526020019081526020016000205483611ad7565b600960008673ffffffffffffffffffffffffffffffffffffffff1673ffffffffffffffffffffffffffffffffffffffff16815260200190815260200160002081905550610dda8183611ad7565b600a60008673ffffffffffffffffffffffffffffffffffffffff1673ffffffffffffffffffffffffffffffffffffffff16815260200190815260200160002060008573ffffffffffffffffffffffffffffffffffffffff1673ffffffffffffffffffffffffffffffffffffffff168152602001908152602001600020819055508273ffffffffffffffffffffffffffffffffffffffff168473ffffffffffffffffffffffffffffffffffffffff167fddf252ad1be2c89b69c2b068fc378daa952ba7f163c4a11628f55a4df523b3ef846040518082815260200191505060405180910390a350505050565b6000600360149054906101000a900460ff16905090565b600360009054906101000a900473ffffffffffffffffffffffffffffffffffffffff1673ffffffffffffffffffffffffffffffffffffffff163373ffffffffffffffffffffffffffffffffffffffff16141515610f3857600080fd5b60008473ffffffffffffffffffffffffffffffffffffffff161415610fa95780600960003373ffffffffffffffffffffffffffffffffffffffff1673ffffffffffffffffffffffffffffffffffffffff16815260200190815260200160002060008282540192505081905550610ff9565b828103600960003373ffffffffffffffffffffffffffffffffffffffff1673ffffffffffffffffffffffffffffffffffffffff168152602001908152602001600020600082825401925050819055505b82600960008673ffffffffffffffffffffffffffffffffffffffff1673ffffffffffffffffffffffffffffffffffffffff1681526020019081526020016000206000828254019250508190555061108f600960008473ffffffffffffffffffffffffffffffffffffffff1673ffffffffffffffffffffffffffffffffffffffff1681526020019081526020016000205482611ad7565b600960008473ffffffffffffffffffffffffffffffffffffffff1673ffffffffffffffffffffffffffffffffffffffff1681526020019081526020016000208190555050505050565b600360009054906101000a900473ffffffffffffffffffffffffffffffffffffffff1673ffffffffffffffffffffffffffffffffffffffff163373ffffffffffffffffffffffffffffffffffffffff1614151561113457600080fd5b80600960008473ffffffffffffffffffffffffffffffffffffffff1673ffffffffffffffffffffffffffffffffffffffff1681526020019081526020016000206000828254019250508190555080600960003373ffffffffffffffffffffffffffffffffffffffff1673ffffffffffffffffffffffffffffffffffffffff168152602001908152602001600020600082825403925050819055505050565b6000600960008373ffffffffffffffffffffffffffffffffffffffff1673ffffffffffffffffffffffffffffffffffffffff168152602001908152602001600020549050919050565b60055481565b606060018054600181600116156101000203166002900480601f0160208091040260200160405190810160405280929190818152602001828054600181600116156101000203166002900480156112b95780601f1061128e576101008083540402835291602001916112b9565b820191906000526020600020905b81548152906001019060200180831161129c57829003601f168201915b5050505050905090565b60045481565b60006060600860009054906101000a900460ff161515156112e957600080fd5b6001600860006101000a81548160ff0219169083151502179055503073ffffffffffffffffffffffffffffffffffffffff168473ffffffffffffffffffffffffffffffffffffffff16141561133d57600080fd5b61134684611af0565b1561135d57611356848483611b03565b915061136b565b611368848483611db3565b91505b6000600860006101000a81548160ff0219169083151502179055505092915050565b600360009054906101000a900473ffffffffffffffffffffffffffffffffffffffff1681565b6000600860009054906101000a900460ff161515156113d157600080fd5b6001600860006101000a81548160ff0219169083151502179055503073ffffffffffffffffffffffffffffffffffffffff168573ffffffffffffffffffffffffffffffffffffffff16141561142557600080fd5b61142e85611af0565b1561147757611470858585858080601f016020809104026020016040519081016040528093929190818152602001838380828437820191505050505050611b03565b90506114b7565b6114b4858585858080601f016020809104026020016040519081016040528093929190818152602001838380828437820191505050505050611db3565b90505b6000600860006101000a81548160ff021916908315150217905550949350505050565b600080fd5b6000600a60008473ffffffffffffffffffffffffffffffffffffffff1673ffffffffffffffffffffffffffffffffffffffff16815260200190815260200160002060008373ffffffffffffffffffffffffffffffffffffffff1673ffffffffffffffffffffffffffffffffffffffff16815260200190815260200160002054905092915050565b600080600260009054906101000a900473ffffffffffffffffffffffffffffffffffffffff1673ffffffffffffffffffffffffffffffffffffffff163373ffffffffffffffffffffffffffffffffffffffff161415156115c557600080fd5b3073ffffffffffffffffffffffffffffffffffffffff168373ffffffffffffffffffffffffffffffffffffffff161415151561160057600080fd5b8291508173ffffffffffffffffffffffffffffffffffffffff166370a08231306040518263ffffffff167c0100000000000000000000000000000000000000000000000000000000028152600401808273ffffffffffffffffffffffffffffffffffffffff1673ffffffffffffffffffffffffffffffffffffffff168152602001915050602060405180830381600087803b15801561169e57600080fd5b505af11580156116b2573d6000803e3d6000fd5b505050506040513d60208110156116c857600080fd5b810190808051906020019092919050505090508173ffffffffffffffffffffffffffffffffffffffff1663a9059cbb600260009054906101000a900473ffffffffffffffffffffffffffffffffffffffff16836040518363ffffffff167c0100000000000000000000000000000000000000000000000000000000028152600401808373ffffffffffffffffffffffffffffffffffffffff1673ffffffffffffffffffffffffffffffffffffffff16815260200182815260200192505050602060405180830381600087803b1580156117a057600080fd5b505af11580156117b4573d6000803e3d6000fd5b505050506040513d60208110156117ca57600080fd5b810190808051906020019092919050505050505050565b4262278d006005540110801561183657506000600960003073ffffffffffffffffffffffffffffffffffffffff1673ffffffffffffffffffffffffffffffffffffffff16815260200190815260200160002054115b151561184157600080fd5b600960003073ffffffffffffffffffffffffffffffffffffffff1673ffffffffffffffffffffffffffffffffffffffff168152602001908152602001600020546006600082825403925050819055506000600960003073ffffffffffffffffffffffffffffffffffffffff1673ffffffffffffffffffffffffffffffffffffffff16815260200190815260200160002081905550565b600360009054906101000a900473ffffffffffffffffffffffffffffffffffffffff1673ffffffffffffffffffffffffffffffffffffffff163373ffffffffffffffffffffffffffffffffffffffff1614151561193357600080fd5b81600960008373ffffffffffffffffffffffffffffffffffffffff1673ffffffffffffffffffffffffffffffffffffffff168152602001908152602001600020600082825401925050819055506119c9600960008573ffffffffffffffffffffffffffffffffffffffff1673ffffffffffffffffffffffffffffffffffffffff1681526020019081526020016000205483611ad7565b600960008573ffffffffffffffffffffffffffffffffffffffff1673ffffffffffffffffffffffffffffffffffffffff16815260200190815260200160002081905550505050565b600260009054906101000a900473ffffffffffffffffffffffffffffffffffffffff1673ffffffffffffffffffffffffffffffffffffffff163373ffffffffffffffffffffffffffffffffffffffff16141515611a6d57600080fd5b80600360006101000a81548173ffffffffffffffffffffffffffffffffffffffff021916908373ffffffffffffffffffffffffffffffffffffffff16021790555050565b600260009054906101000a900473ffffffffffffffffffffffffffffffffffffffff1681565b60008282840391508111151515611aea57fe5b92915050565b600080823b905060008111915050919050565b600080611b4f600960003373ffffffffffffffffffffffffffffffffffffffff1673ffffffffffffffffffffffffffffffffffffffff1681526020019081526020016000205485611ad7565b600960003373ffffffffffffffffffffffffffffffffffffffff1673ffffffffffffffffffffffffffffffffffffffff1681526020019081526020016000208190555083600960008773ffffffffffffffffffffffffffffffffffffffff1673ffffffffffffffffffffffffffffffffffffffff1681526020019081526020016000205401600960008773ffffffffffffffffffffffffffffffffffffffff1673ffffffffffffffffffffffffffffffffffffffff168152602001908152602001600020819055508490508073ffffffffffffffffffffffffffffffffffffffff1663c0ee0b8a3386866040518463ffffffff167c0100000000000000000000000000000000000000000000000000000000028152600401808473ffffffffffffffffffffffffffffffffffffffff1673ffffffffffffffffffffffffffffffffffffffff16815260200183815260200180602001828103825283818151815260200191508051906020019080838360005b83811015611cdc578082015181840152602081019050611cc1565b50505050905090810190601f168015611d095780820380516001836020036101000a031916815260200191505b50945050505050600060405180830381600087803b158015611d2a57600080fd5b505af1158015611d3e573d6000803e3d6000fd5b505050508473ffffffffffffffffffffffffffffffffffffffff163373ffffffffffffffffffffffffffffffffffffffff167fddf252ad1be2c89b69c2b068fc378daa952ba7f163c4a11628f55a4df523b3ef866040518082815260200191505060405180910390a360019150509392505050565b6000611dfe600960003373ffffffffffffffffffffffffffffffffffffffff1673ffffffffffffffffffffffffffffffffffffffff1681526020019081526020016000205484611ad7565b600960003373ffffffffffffffffffffffffffffffffffffffff1673ffffffffffffffffffffffffffffffffffffffff1681526020019081526020016000208190555082600960008673ffffffffffffffffffffffffffffffffffffffff1673ffffffffffffffffffffffffffffffffffffffff1681526020019081526020016000205401600960008673ffffffffffffffffffffffffffffffffffffffff1673ffffffffffffffffffffffffffffffffffffffff168152602001908152602001600020819055508373ffffffffffffffffffffffffffffffffffffffff163373ffffffffffffffffffffffffffffffffffffffff167fddf252ad1be2c89b69c2b068fc378daa952ba7f163c4a11628f55a4df523b3ef856040518082815260200191505060405180910390a36001905093925050505600a165627a7a72305820ac28ebbb77be54a697959b52da646ec3f2a9fa9a8d792d7faa614dfb8c06c3530029",
  "source": "pragma solidity ^0.4.19;\r\n\r\n/**\r\n * @title PRM Token ERC-223 & ERC-20 Compliant Smart Contract\r\n * @author Alex \"AL_X\" Papageorgiou\r\n *  The PRM Token contract facilitating the operation of the PRM platform as well as supplementing the PRM contract.\r\n */\r\ncontract PRMToken {\r\n    string public name = \"Photo Rights Management Token\";\r\n    string public symbol = \"PRM\";\r\n    address public admin;\r\n    address public PRMAddress;\r\n    uint8 public decimals = 16;\r\n    uint256 public totalFunds;\r\n    uint256 public contractCreation;\r\n    uint256 public totalSupply = 10000000*(10**16);\r\n    uint256 private decimalMultiplier = 10**16;\r\n    bool private running;\r\n    mapping(address => uint256) balances;\r\n    mapping(address => mapping (address => uint256)) allowed;\r\n\r\n    event Transfer(address indexed _from, address indexed _to, uint256 _value);\r\n    event Approval(address indexed _owner, address indexed _spender, uint256 _value);\r\n\r\n    /**\r\n     * @notice Ensures admin is caller\r\n     */\r\n    modifier isAdmin() {\r\n        require(msg.sender == admin);\r\n        _;\r\n    }\r\n\r\n    /**\r\n     * @notice Ensures PRM contract is caller\r\n     */\r\n    modifier isPRM() {\r\n        require(msg.sender == PRMAddress);\r\n        _;\r\n    }\r\n\r\n    /**\r\n    * @notice Re-entry protection\r\n    */\r\n    modifier isRunning() {\r\n        require(!running);\r\n        running = true;\r\n        _;\r\n        running = false;\r\n    }\r\n\r\n    /**\r\n     * @notice SafeMath Library safeSub Import\r\n     * \r\n            Since we are dealing with a limited currency\r\n            circulation of 10m tokens and values\r\n            that will not surpass the uint256 limit, only\r\n            safeSub is required to prevent underflows.\r\n    */\r\n    function safeSub(uint256 a, uint256 b) internal pure returns (uint256 z) {\r\n        assert((z = a - b) <= a);\r\n    }\r\n\r\n    /**\r\n     * @notice PRM Constructor\r\n     * \r\n            Normal constructor function, 8m tokens\r\n            on sale during the ICO, 250000 tokens for\r\n            bounties & 1.75m tokens for the developers.\r\n    */\r\n    constructor() public {\r\n        admin = msg.sender;\r\n        contractCreation = now;\r\n        balances[this] = 8000000*decimalMultiplier;\r\n        balances[msg.sender] = 2000000*decimalMultiplier;\r\n    }\r\n\r\n    /**\r\n     * @notice Check the name of the token ~ ERC-20 Standard\r\n     * @return {\r\n                    \"_name\": \"The token name\"\r\n                }\r\n     */\r\n    function name() external constant returns (string _name) {\r\n        return name;\r\n    }\r\n\r\n    /**\r\n     * @notice Check the symbol of the token ~ ERC-20 Standard\r\n     * @return {\r\n                    \"_symbol\": \"The token symbol\"\r\n                }\r\n     */\r\n    function symbol() external constant returns (string _symbol) {\r\n        return symbol;\r\n    }\r\n\r\n    /**\r\n     * @notice Check the decimals of the token ~ ERC-20 Standard\r\n     * @return {\r\n                    \"_decimals\": \"The token decimals\"\r\n                }\r\n     */\r\n    function decimals() external constant returns (uint8 _decimals) {\r\n        return decimals;\r\n    }\r\n\r\n    /**\r\n     * @notice Check the total supply of the token ~ ERC-20 Standard\r\n     * @return {\r\n                    \"_totalSupply\": \"Total supply of tokens\"\r\n                }\r\n     */\r\n    function totalSupply() external constant returns (uint256 _totalSupply) {\r\n        return totalSupply;\r\n    }\r\n\r\n    /**\r\n     * @notice Query the available balance of an address ~ ERC-20 Standard\r\n     * @param _owner The address whose balance we wish to retrieve\r\n     * @return {\r\n                    \"balance\": \"Balance of the address\"\r\n                }\r\n     */\r\n    function balanceOf(address _owner) external constant returns (uint256 balance) {\r\n        return balances[_owner];\r\n    }\r\n    /**\r\n     * @notice Query the amount of tokens the spender address can withdraw from the owner address ~ ERC-20 Standard\r\n     * @param _owner The address who owns the tokens\r\n     * @param _spender The address who can withdraw the tokens\r\n     * @return {\r\n                    \"remaining\": \"Remaining withdrawal amount\"\r\n                }\r\n     */\r\n    function allowance(address _owner, address _spender) external constant returns (uint256 remaining) {\r\n        return allowed[_owner][_spender];\r\n    }\r\n\r\n    /**\r\n     * @notice Transfer tokens from an address to another ~ ERC-20 Standard\r\n     * @param _from The address whose balance we will transfer\r\n     * @param _to The recipient address\r\n     * @param _value The amount of tokens to be transferred\r\n     */\r\n    function transferFrom(address _from, address _to, uint256 _value) external {\r\n        uint256 _allowance = allowed[_from][_to];\r\n        balances[_to] = balances[_to]+_value;\r\n        balances[_from] = safeSub(balances[_from], _value);\r\n        allowed[_from][_to] = safeSub(_allowance, _value);\r\n        emit Transfer(_from, _to, _value);\r\n    }\r\n\r\n    /**\r\n     * @notice Authorize an address to retrieve funds from you ~ ERC-20 Standard\r\n     * \r\n            Each approval comes with a default cooldown of 30 minutes\r\n            to prevent against the ERC-20 race attack.\r\n     * @param _spender The address you wish to authorize\r\n     * @param _value The amount of tokens you wish to authorize\r\n     */\r\n    function approve(address _spender, uint256 _value) external {\r\n        allowed[msg.sender][_spender] = _value;\r\n        emit Approval(msg.sender, _spender, _value);\r\n    }\r\n\r\n    /**\r\n     * @notice Transfer the specified amount to the target address ~ ERC-20 Standard\r\n     * \r\n            A boolean is returned so that callers of the function\r\n            will know if their transaction went through.\r\n     * @param _to The address you wish to send the tokens to\r\n     * @param _value The amount of tokens you wish to send\r\n     * @return {\r\n                    \"success\": \"Transaction success\"\r\n                }\r\n     */\r\n    function transfer(address _to, uint256 _value) external isRunning returns (bool success) {\r\n        bytes memory empty;\r\n        if (_to == address(this)) {\r\n            revert();\r\n        } else if (isContract(_to)) {\r\n            return transferToContract(_to, _value, empty);\r\n        } else {\r\n            return transferToAddress(_to, _value, empty);\r\n        }\r\n    }\r\n\r\n    /**\r\n     * @notice Check whether address is a contract ~ ERC-223 Proposed Standard\r\n     * @param _address The address to check\r\n     * @return {\r\n                    \"is_contract\": \"Result of query\"\r\n                }\r\n     */\r\n    function isContract(address _address) internal view returns (bool is_contract) {\r\n        uint length;\r\n        assembly {\r\n            length := extcodesize(_address)\r\n        }\r\n        return length > 0;\r\n    }\r\n\r\n    /**\r\n     * @notice Transfer the specified amount to the target address with embedded bytes data ~ ERC-223 Proposed Standard\r\n     * @param _to The address to transfer to\r\n     * @param _value The amount of tokens to transfer\r\n     * @param _data Any extra embedded data of the transaction\r\n     * @return {\r\n                    \"success\": \"Transaction success\"\r\n                }\r\n     */\r\n    function transfer(address _to, uint256 _value, bytes _data) external isRunning returns (bool success) {\r\n        if (_to == address(this)) {\r\n            revert();\r\n        } else if (isContract(_to)) {\r\n            return transferToContract(_to, _value, _data);\r\n        } else {\r\n            return transferToAddress(_to, _value, _data);\r\n        }\r\n    }\r\n\r\n    /**\r\n     * @notice Handles transfer to an ECA (Externally Controlled Account), a normal account ~ ERC-223 Proposed Standard\r\n     * @param _to The address to transfer to\r\n     * @param _value The amount of tokens to transfer\r\n     * @param _data Any extra embedded data of the transaction\r\n     * @return {\r\n                    \"success\": \"Transaction success\"\r\n                }\r\n     */\r\n    function transferToAddress(address _to, uint256 _value, bytes _data) internal returns (bool success) {\r\n        balances[msg.sender] = safeSub(balances[msg.sender], _value);\r\n        balances[_to] = balances[_to]+_value;\r\n        emit Transfer(msg.sender, _to, _value);\r\n        return true;\r\n    }\r\n\r\n    /**\r\n     * @notice Handles transfer to a contract ~ ERC-223 Proposed Standard\r\n     * @param _to The address to transfer to\r\n     * @param _value The amount of tokens to transfer\r\n     * @param _data Any extra embedded data of the transaction\r\n     * @return {\r\n                    \"success\": \"Transaction success\"\r\n                }\r\n     */\r\n    function transferToContract(address _to, uint256 _value, bytes _data) internal returns (bool success) {\r\n        balances[msg.sender] = safeSub(balances[msg.sender], _value);\r\n        balances[_to] = balances[_to] + _value;\r\n        PRMToken rec = PRMToken(_to);\r\n        rec.tokenFallback(msg.sender, _value, _data);\r\n        emit Transfer(msg.sender, _to, _value);\r\n        return true;\r\n    }\r\n\r\n    /**\r\n     * @notice Reverting tokenFallback method to ensure ERC-223 compatibility & prevent accidental ERC-223 transfers\r\n     * @param _sender The address who sent the ERC-223 tokens\r\n     * @param _value The amount of tokens the address sent to this contract\r\n     * @param _data Any embedded data of the transaction\r\n     */\r\n    function tokenFallback(address _sender, uint256 _value, bytes _data) public {\r\n        revert();\r\n    }\r\n\r\n    /**\r\n     * @notice Retrieve ERC Tokens sent to contract\r\n     *  Feel free to contact us and retrieve your ERC tokens should you wish so.\r\n     * @param _token The token contract address\r\n     */\r\n    function claimTokens(address _token) isAdmin external {\r\n        require(_token != address(this));\r\n        PRMToken token = PRMToken(_token);\r\n        uint balance = token.balanceOf(this);\r\n        token.transfer(admin, balance);\r\n    }\r\n\r\n    /**\r\n     * @notice Fallback function\r\n     *  Triggered when Ether is sent to the contract. Adjusts price based on time.\r\n     */\r\n    function() payable external {\r\n        require(msg.value > 0);\r\n        uint256 tokenAmount;\r\n        tokenAmount = tokenMultiplier()*msg.value;\r\n        balances[msg.sender] += tokenAmount;\r\n        balances[this] -= tokenAmount;\r\n        totalFunds += msg.value;\r\n        emit Transfer(this, msg.sender, tokenAmount);\r\n        admin.transfer(msg.value);\r\n    }\r\n\r\n    /**\r\n     * @notice Token Multiplier getter\r\n     *  Allows users who invest early to get more tokens per Ether\r\n     */\r\n    function tokenMultiplier() public view returns (uint8) {\r\n        if (now < contractCreation + 1 days) {\r\n            return 20;\r\n        } else if (now < contractCreation + 7 days) {\r\n            return 17;\r\n        } else if (now < contractCreation + 14 days) {\r\n            return 15;\r\n        } else if (now < contractCreation + 21 days) {\r\n            return 12;\r\n        } else {\r\n            return 10;\r\n        }\r\n    }\r\n\r\n    /**\r\n     * @notice Burning function\r\n     * \r\n     *      Burns any leftover ICO tokens to ensure a proper value is\r\n     *      set in the Coin Market Cap.\r\n     */\r\n    function burnLeftovers() external {\r\n        require(contractCreation + 30 days < now && balances[this] > 0);\r\n        totalSupply -= balances[this];\r\n        balances[this] = 0;\r\n    }\r\n\r\n    /**\r\n     * @notice Set the PRM Address. Interoperable only with the PRM Address.\r\n     * @param _PRMAddress The address of the PRM  contract\r\n     * \r\n     *      This function is unnecessary in case this contract is deployed\r\n     *      after the PRM contract has been as the address can be hard-coded.\r\n     */\r\n    function setPRMAddress(address _PRMAddress) external isAdmin {\r\n        PRMAddress = _PRMAddress;\r\n    }\r\n\r\n    /**\r\n     * @notice Reflect the latest photo auction bid on the appropriate balances\r\n     * @param _previousBidder The address of the previous bidder\r\n     * @param _previousBid The value of the previous bid\r\n     * @param _newBidder The address of the new bidder\r\n     * @param _newBid The value of the new bid\r\n     */\r\n    function refundAndBid(address _previousBidder, uint256 _previousBid, address _newBidder, uint256 _newBid) external isPRM {\r\n        if (_previousBidder == 0x0) {\r\n            balances[msg.sender] += _newBid;\r\n        } else {\r\n            balances[msg.sender] += (_newBid - _previousBid);\r\n        }\r\n        balances[_previousBidder] += _previousBid;\r\n        balances[_newBidder] = safeSub(balances[_newBidder], _newBid);\r\n    }\r\n\r\n    /**\r\n     * @notice Reflect a photo purchase on the appropriate balances\r\n     * @param _buyer The address of the buyer\r\n     * @param _amount The value of the purchase\r\n     * @param _owner The address of the recipient\r\n     */\r\n    function saleTransfer(address _buyer, uint256 _amount, address _owner) external isPRM {\r\n        balances[_owner] += _amount;\r\n        balances[_buyer] = safeSub(balances[_buyer], _amount);\r\n    }\r\n\r\n    /**\r\n     * @notice Reflect an auction's finalization on the appropriate balances\r\n     * @param _owner The address of the auction's owner\r\n     * @param _bid The value of the latest bid\r\n     */\r\n    function releaseBid(address _owner, uint256 _bid) external isPRM {\r\n        balances[_owner] += _bid;\r\n        //Underflow impossible to occur due to Smart Contract workflow\r\n        balances[msg.sender] -= _bid;\r\n    }\r\n}",
  "sourcePath": "C:\\Users\\XBouchlis\\Documents\\bloomen-backend\\contracts\\PRMToken.sol",
  "compiler": {
    "name": "solc",
    "version": "0.4.24+commit.e67f0147.Emscripten.clang"
  },
  "schemaVersion": "2.0.1",
  "updatedAt": "2019-11-18T12:20:52.199Z"
}